:1008A30074656D70657261747572653A00CEC2B617
:0308B300C83A0040
:1007F200759850758921758780758DF3758BF375A2
:100802008CFD758AFDD2A9D28CD2ACD2AFD28E2207
:1008C700438901758CFC758A18D2A9D2AFD28C22C4
:0A08EE00C2998F993099FDC299223A
:060740008B1A8A1B891CC4
:100746001208668E1D8F1EE4FDFCC3ED951EEC950A
:100756001D5018AB1AAA1BA91C8D828C831203C1CB
:0B076600FF1208EE0DBD00010C80DF4B
:010771002265
:10067A0078237C007D007BFF7A0879B07E007F06B4
:10068A0012039B7F541208EEE4FDFCED64034C70E8
:10069A00057F2E1208EE74082DF8E62430FF1208A2
:1006AA00EE0DBD00010CED64054C70DF7F0D1208E4
:0606BA00EE7F0A0208EECB
:0F077200C2A5C2A77F017E001207818980D2A78E
:10078100E4FDFCC3ED9FEC9E5015E4FBFA0BBB00AE
:0F079100010ABA01F8BB2CF50DBD00010C80E484
:0107A0002236
:10081200C2A6D2A5C2A77F017E00120781D2A7126B
:0E0822000781E580339201C2A7120781A2016F
:0108300022A5
:1008B600A90712081240FBC2A6120772C2A70207B6
:0108C60081B0
:03087B002430FF27
:10087E00A90712081240FBD2A6120772C2A70207DE
:01088E0081E8
:060626008B298A2A892BB2
:10062C007F381208B67F0C1208B67F061208B67F08
:10063C000112087E7F801208B6E4F52CF52DAB294B
:10064C00AA2AA92B120866C3E52D9FE52C9E501DE6
:10065C00AB29AA2AA92B852D82852C831203C1FFD5
:0D066C0012087E052DE52D70D5052C80D1DE
:01067900225E
:0B08E300EF1FAC0670011E4C70F622E7
:0404A000AB07AA06F6
:1004A400C3EA648094805010751240EB1B70011AEB
:1004B4006303FF6302FF8003E4F512AD03AC02ECB7
:1004C4001202118F2C8E2B8D2A8C29E4FFFE7DC8FD
:1004D4007C40AB2CAA2BA92AA829120106E4FBFA1A
:1004E400F9783F12001512024AAA06AB077C277D51
:1004F40010AF03AE021203EE8F0D7C277D10AF0305
:10050400AE021203EE7E037FE8CFCDCFCECCCE1267
:1005140003EE8F0F7C037DE8AF03AE021203EE7E81
:10052400007F64CFCDCFCECCCE1203EE8F107C00F3
:100534007D64AF03AE021203EE7E007F0ACFCDCFFF
:10054400CECCCE1203EE8F0EAE02AF037C007D0A3A
:100554001203EE8D11E511C39400406FE511D3949D
:10056400095068E50EC394004061E50ED394095028
:100574005AE50FC39401400DE50FD3940550067E50
:10058400007F0180047E007F00E510C39400400DCD
:10059400E510D3940950067C007D0180047C007D25
:1005A40000EC5EFEED5FFFE50D7005FC7D0180044F
:1005B4007C007D00EC5EFEED5F4E600F850D0885CE
:0B05C4000F0985100A850E0B85110C35
:0105CF002209
:1007A1007FC51208B6E50812087BE50912087BE54A
:1007B1000A2430FF12087E7F2E12087EE50B2430BA
:0C07C100FF12087EE50C2430FF02087EC9
:10088F007BFF7A0879A31206261207F212084F127D
:04089F0004A080F839
:03000B000205D01B
:1005D000C0E0C0F0C083C082C0D075D000C000C0F1
:0D05E00001C002C003C004C005C006C00772
:1005ED00758CFC758A180522E5227002052164645C
:0E05FD004521700AF521F52212067A1207A197
:10060B00D007D006D005D004D003D002D001D00043
:0B061B00D0D0D082D083D0F0D0E032ED
:10083100D3EF9400EE940040147D6E7C00ED1D70AA
:0D084100011CED4C70F7EF1F70E61E80E308
:01084E002287
:1007CD00C2B77B46AF031BEF70FAD2B7E4FB30B76D
:1007DD00117F017E001208310BEBD3940540EF7FA2
:0407ED0000227F0166
:0107F10022E5
:0C06C0001207CD7F017E001208317FCCB4
:1006CC00E4FBFAC2B7052BE52B7002052AEF139257
:1006DC00B7752A00752B06E52B152BAC2A70021565
:1006EC002A4C70F3D2B7EFC313FF0BBB00010AEB1C
:0506FC0064084A70CE05
:0107010022D5
:100702007D087C00C2B70FBF0000D2B70FBF000048
:100712000FBF0000A2B7E433C43333335480FBE984
:10072200C3134BF97E007F04EF1FAA0670011E4A15
:0D07320070F6ED1D70011CED4C70C9AF019B
:01073F002297
:080003001206C07F440206CC86
:0808F8001206C07FBE0206CC0F
:10084F00E4FFFE1200031208F81207028F291207A5
:06085F0002EFFEE529FF97
:010865002270
:10000E000202B6E86480F8E933E83360110460F068
:10001E00ED33EC337009E8FCE9FDEAFEEBFF220458
:10002E0060DED3EB9FEA9EE99DE8C2E78CF0C2F753
:10003E0095F0400CE8CCF8E9CDF9EACEFAEBCFFB1F
:10004E0012028185D0F05804700320D5B3E80470F5
:10005E00075002B2D50202C092D5EC0460F7E4CC90
:10006E00C0E0C398F8603B94186008400DD0E0FBE8
:10007E00020298E4FBFAC9FC8028E830E406E4C9E1
:10008E00FBE4CAFCE830E305E4C9CACBFCE854073C
:10009E006010F8C3E913F9EA13FAEB13FBEC13FC47
:1000AE00D8F130F52FC3E49CFCEF9BFFEE9AFEEDEA
:1000BE0099FDD0E0FBEF4E4D4C701222DB03020295
:1000CE00BDEC2CFCEF33FFEE33FEED33FDED30E7F0
:1000DE00EB020298EF2BFFEE3AFEED39FDD0E0FB7E
:1000EE0050130BBB00030202C0ED13FDEE13FEEF27
:0800FE0013FFEC13FC02029851
:10010600EC4D6011E8497017ED33EC3304600DE4F3
:10011600FCFFFEFD22E933E8330470F80202B61252
:10012600028158046009E4CC248150062850090253
:1001360002C02840030202BDC0E0EB4A7044B98009
:1001460006D0E0FB0202ACEF4E701CBD8008EBFF50
:10015600EAFEE9FD80EBE98DF0A4FEE5F00201EF91
:10016600E9CDF9EAFEEBFFEF89F0A4FCE5F0CE89D4
:10017600F0A42EFFE435F0CD89F0A42DFEE435F091
:100186008067EF4E7005BD80D780C3EF8BF0A4ACBF
:10019600F0EE8BF0A42CFCE435F0F8EF8AF0A42CFA
:1001A600E5F038FCE433CB8DF0A42CFCE5F03BF80D
:1001B600EE8AF0A42CFCE5F038F8E433CF89F0A4FD
:1001C6002CFCE5F038CF3400CE89F0A42FFFE5F003
:1001D6003EFEE433C98DF0A42EFEE5F039CD8AF05B
:1001E600A42FFFE5F03EFEE43DFD33D0E0FB5007D3
:1001F6000BBB000F0202C0EC2CFCEF33FFEE33FE0C
:06020600ED33FD02029839
:10020C0075F020800E75F010800575F0087D007E6D
:10021C00007F003392D530D503120424EC33401008
:10022C00EF33FFEE33FEED33FDEC33FCD5F0ED2276
:0E023C00E5F0247EA2D513CC92E7CDCEFF22B2
:10024A00EDD2E7CD33EC3392D524814006E4FFFEAC
:10025A00FDFC22FCE4CFCECDCC24E0501174FF800B
:10026A00EDC3CC13CCCD13CDCE13CECF13CF0470A8
:07027A00F030D5DE02042480
:10028100E9D2E7C933E833F892D5EDD2E7CD33ECC3
:0702910033FC5002B2D5223C
:10029800EC30E7100FBF000C0EBE00080DBD0004C7
:1002A8000BEB6014A2D5EB13FCED92E7FD2274FF73
:1002B800FCFDFEFF22E480F8A2D574FF13FC7D80CC
:0302C800E480EFE0
:030000000208D71C
:0C08D700787FE4F6D8FD75812D02088FB3
:1002CB00E709F608DFFA8046E709F208DFFA803E15
:1002DB0088828C83E709F0A3DFFA8032E309F60802
:1002EB00DFFA8078E309F208DFFA807088828C836A
:1002FB00E309F0A3DFFA806489828A83E0A3F6081E
:10030B00DFFA805889828A83E0A3F208DFFA804CF7
:10031B0080D280FA80C680D4806980F280338010CE
:10032B0080A680EA809A80A880DA80E280CA803337
:10033B0089828A83ECFAE493A3C8C582C8CCC583AF
:10034B00CCF0A3C8C582C8CCC583CCDFE9DEE7807F
:10035B000D89828A83E493A3F608DFF9ECFAA9F0FE
:10036B00EDFB2289828A83ECFAE0A3C8C582C8CC54
:10037B00C583CCF0A3C8C582C8CCC583CCDFEADE6D
:10038B00E880DB89828A83E493A3F208DFF980CCCF
:10039B0088F0EF60010E4E60C388F0ED2402B404C8
:1003AB000050B9F582EB2402B4040050AF2323456F
:0603BB00822390031B7376
:1003C100BB010CE58229F582E5833AF583E02250F1
:1003D10006E92582F8E622BBFE06E92582F8E2223B
:0D03E100E58229F582E5833AF583E4932255
:1003EE00C2D5EC30E709B2D5E4C39DFDE49CFCEE2A
:1003FE0030E715B2D5E4C39FFFE49EFE12044BC353
:10040E00E49DFDE49CFC800312044B30D507C3E44D
:06041E009FFFE49EFE2298
:0E042400C3E49FFFE49EFEE49DFDE49CFC22E9
:10086600E4FFFE120432600C0FEF70010E09E9700E
:05087600F20A80EF22F0
:10043200BB010689828A83E0225002E722BBFE02C8
:09044200E32289828A83E49322FB
:10044B00BC000BBE0029EF8DF084FFADF022E4CC95
:10045B00F875F008EF2FFFEE33FEEC33FCEE9DEC5E
:10046B00984005FCEE9DFE0FD5F0E9E4CEFD22EDA4
:10047B00F8F5F0EE8420D21CFEADF075F008EF2FEE
:10048B00FFED33FD4007985006D5F0F222C398FDDF
:05049B000FD5F0EA227C
:00000001FF
