:1008BF00CEC2B6C83A003F065B4F666D7D077F6FAD
:10081600759850758921758780758DF3758BF3757D
:100826008CFD758AFDD2A9D28CD2ACD2AFD28E22E3
:1008AF00438901758CFC758A18D2A9D2AFD28C22DC
:0A08F400C2998F993099FDC2992234
:060765008B108A118912BD
:10076B00751300751406E4FDFCC3ED9514EC95139D
:10077B005018AB10AA11A9128D828C831203C1FFE2
:0A078B001208F40DBD00010C80DF20
:010795002241
:10069600780A7C007D007BFF7A0879BF7E007F06A2
:1006A60012039B7B007A00790A120765E4FDFCEDD4
:1006B60064034C70057F2E1208F474292DF8E62485
:1006C60030FF1208F40DBD00010CED64054C70DF1F
:0F06D6007F431208F47F0D1208F47F0A0208F424
:0F079600C2A5C2A77F017E001207A58980D2A746
:1007A500E4FDFCC3ED9FEC9E5015E4FBFA0BBB008A
:0F07B500010ABA01F8BB2CF50DBD00010C80E460
:0107C4002212
:10083600C2A6D2A5C2A77F017E001207A5D2A71223
:0E08460007A5E580339201C2A71207A5A20103
:010854002281
:10089E00A90712083640FBC2A6120796C2A7020786
:0108AE00A5A4
:03088A002430FF18
:10088D00A90712083640FBD2A6120796C2A7020787
:01089D00A5B5
:100641007F3812089E7F0C12089E7F0612089E7F3B
:100651000112088D7F8012089E7F7412088D7F65BC
:1006610012088D7F6D12088D7F7012088D7F6512C3
:10067100088D7F7212088D7F6112088D7F741208B8
:100681008D7F7512088D7F7212088D7F6512088D1E
:050691007F3A02088D14
:0B08E900EF1FAC0670011E4C70F622E1
:04048700AB07AA060F
:10048B00C3EA648094805010752140EB1B70011AF5
:10049B006303FF6302FF8003E4F521AD03AC02ECC1
:1004AB001202118F188E178D168C15E4FFFE7DC866
:1004BB007C40AB18AA17A916A815120106E4FBFA83
:1004CB00F9783F12001512024AAA06AB077C277D6A
:1004DB0010AF03AE021203EE74C52FF58274083E03
:1004EB00F583E493F5227C277D10AF03AE02120354
:1004FB00EE7E037FE8CFCDCFCECCCE1203EE74C50C
:10050B002FF58274083EF583E493F5237C037DE895
:10051B00AF03AE021203EE7E007F64CFCDCFCECC05
:10052B00CE1203EE74C52FF58274083EF583E49367
:10053B004480F5247C007D64AF03AE021203EE7E93
:10054B00007F0ACFCDCFCECCCE1203EE74C52FF5E4
:10055B008274083EF583E493F5257C007D0AAF0396
:10056B00AE021203EE74C52DF58274083CF583E4DC
:10057B0093F5267C277D10AF03AE021203EE8F2975
:10058B007C277D10AF03AE021203EE7E037FE8CF14
:10059B00CDCFCECCCE1203EE8F2A7C037DE8AF03FA
:1005AB00AE021203EE7E007F64CFCDCFCECCCE1247
:1005BB0003EE8F2B7C007D64AF03AE021203EE7E45
:1005CB00007F0ACFCDCFCECCCE1203EE8F2CAE0256
:0B05DB00AF037C007D0A1203EE8D2DA3
:0105E60022F2
:1007C5007FC512089EE52912088AE52A12088AE5DE
:1007D5002B2430FF12088D7F2E12088DE52C243036
:0C07E500FF12088DE52D2430FF02088D66
:0E08CF0012064112081612087312048780F8F0
:03000B000205E704
:1005E700C0E0C0F0C083C082C0D075D000C000C0DA
:0D05F70001C002C003C004C005C006C0075B
:10060400758CFC758A180509E50970020508B4E8BB
:1006140011E508B4030C750800750900120696125A
:0206240007C508
:10062600D007D006D005D004D003D002D001D00028
:0B063600D0D0D082D083D0F0D0E032D2
:10085500D3EF9400EE940040147D6E7C00ED1D7086
:0D086500011CED4C70F7EF1F70E61E80E3E4
:010872002263
:1007F100C2B77B46AF031BEF70FAD2B7E4FB30B749
:10080100117F017E001208550BEBD3940540EF7F59
:0408110000227F0141
:0108150022C0
:0C06E5001207F17F017E001208557FCC47
:1006F100E4FBFAC2B70517E51770020516EF13926E
:10070100B7751600751706E5171517AC16700215A3
:10071100164C70F3D2B7EFC313FF0BBB00010AEB0A
:0507210064084A70CEDF
:0107260022B0
:100727007D087C00C2B70FBF0000D2B70FBF000023
:100737000FBF0000A2B7E433C43333335480FBE95F
:10074700C3134BF97E007F04EF1FAA0670011E4AF0
:0D07570070F6ED1D70011CED4C70C9AF0176
:010764002272
:080003001206E57F440206F13C
:0808FE001206E57FBE0206F1BF
:10087300E4FFFE1200031208FE1207278F1512076A
:0608830027EFFEE515FF62
:01088900224C
:10000E000202B6E86480F8E933E83360110460F068
:10001E00ED33EC337009E8FCE9FDEAFEEBFF220458
:10002E0060DED3EB9FEA9EE99DE8C2E78CF0C2F753
:10003E0095F0400CE8CCF8E9CDF9EACEFAEBCFFB1F
:10004E0012028185D0F05804700320D5B3E80470F5
:10005E00075002B2D50202C092D5EC0460F7E4CC90
:10006E00C0E0C398F8603B94186008400DD0E0FBE8
:10007E00020298E4FBFAC9FC8028E830E406E4C9E1
:10008E00FBE4CAFCE830E305E4C9CACBFCE854073C
:10009E006010F8C3E913F9EA13FAEB13FBEC13FC47
:1000AE00D8F130F52FC3E49CFCEF9BFFEE9AFEEDEA
:1000BE0099FDD0E0FBEF4E4D4C701222DB03020295
:1000CE00BDEC2CFCEF33FFEE33FEED33FDED30E7F0
:1000DE00EB020298EF2BFFEE3AFEED39FDD0E0FB7E
:1000EE0050130BBB00030202C0ED13FDEE13FEEF27
:0800FE0013FFEC13FC02029851
:10010600EC4D6011E8497017ED33EC3304600DE4F3
:10011600FCFFFEFD22E933E8330470F80202B61252
:10012600028158046009E4CC248150062850090253
:1001360002C02840030202BDC0E0EB4A7044B98009
:1001460006D0E0FB0202ACEF4E701CBD8008EBFF50
:10015600EAFEE9FD80EBE98DF0A4FEE5F00201EF91
:10016600E9CDF9EAFEEBFFEF89F0A4FCE5F0CE89D4
:10017600F0A42EFFE435F0CD89F0A42DFEE435F091
:100186008067EF4E7005BD80D780C3EF8BF0A4ACBF
:10019600F0EE8BF0A42CFCE435F0F8EF8AF0A42CFA
:1001A600E5F038FCE433CB8DF0A42CFCE5F03BF80D
:1001B600EE8AF0A42CFCE5F038F8E433CF89F0A4FD
:1001C6002CFCE5F038CF3400CE89F0A42FFFE5F003
:1001D6003EFEE433C98DF0A42EFEE5F039CD8AF05B
:1001E600A42FFFE5F03EFEE43DFD33D0E0FB5007D3
:1001F6000BBB000F0202C0EC2CFCEF33FFEE33FE0C
:06020600ED33FD02029839
:10020C0075F020800E75F010800575F0087D007E6D
:10021C00007F003392D530D503120424EC33401008
:10022C00EF33FFEE33FEED33FDEC33FCD5F0ED2276
:0E023C00E5F0247EA2D513CC92E7CDCEFF22B2
:10024A00EDD2E7CD33EC3392D524814006E4FFFEAC
:10025A00FDFC22FCE4CFCECDCC24E0501174FF800B
:10026A00EDC3CC13CCCD13CDCE13CECF13CF0470A8
:07027A00F030D5DE02042480
:10028100E9D2E7C933E833F892D5EDD2E7CD33ECC3
:0702910033FC5002B2D5223C
:10029800EC30E7100FBF000C0EBE00080DBD0004C7
:1002A8000BEB6014A2D5EB13FCED92E7FD2274FF73
:1002B800FCFDFEFF22E480F8A2D574FF13FC7D80CC
:0302C800E480EFE0
:030000000208DD16
:0C08DD00787FE4F6D8FD75812D0208CF6D
:1002CB00E709F608DFFA8046E709F208DFFA803E15
:1002DB0088828C83E709F0A3DFFA8032E309F60802
:1002EB00DFFA8078E309F208DFFA807088828C836A
:1002FB00E309F0A3DFFA806489828A83E0A3F6081E
:10030B00DFFA805889828A83E0A3F208DFFA804CF7
:10031B0080D280FA80C680D4806980F280338010CE
:10032B0080A680EA809A80A880DA80E280CA803337
:10033B0089828A83ECFAE493A3C8C582C8CCC583AF
:10034B00CCF0A3C8C582C8CCC583CCDFE9DEE7807F
:10035B000D89828A83E493A3F608DFF9ECFAA9F0FE
:10036B00EDFB2289828A83ECFAE0A3C8C582C8CC54
:10037B00C583CCF0A3C8C582C8CCC583CCDFEADE6D
:10038B00E880DB89828A83E493A3F208DFF980CCCF
:10039B0088F0EF60010E4E60C388F0ED2402B404C8
:1003AB000050B9F582EB2402B4040050AF2323456F
:0603BB00822390031B7376
:1003C100BB010CE58229F582E5833AF583E02250F1
:1003D10006E92582F8E622BBFE06E92582F8E2223B
:0D03E100E58229F582E5833AF583E4932255
:1003EE00C2D5EC30E709B2D5E4C39DFDE49CFCEE2A
:1003FE0030E715B2D5E4C39FFFE49EFE120432C36C
:10040E00E49DFDE49CFC800312043230D507C3E466
:06041E009FFFE49EFE2298
:0E042400C3E49FFFE49EFEE49DFDE49CFC22E9
:10043200BC000BBE0029EF8DF084FFADF022E4CCAE
:10044200F875F008EF2FFFEE33FEEC33FCEE9DEC77
:10045200984005FCEE9DFE0FD5F0E9E4CEFD22EDBD
:10046200F8F5F0EE8420D21CFEADF075F008EF2F07
:10047200FFED33FD4007985006D5F0F222C398FDF8
:050482000FD5F0EA2295
:00000001FF
